:1000000045C0000053C0000051C000004FC00000B8
:100010004DC000004BC0000049C0000047C00000B8
:1000200045C0000043C000005CC000003FC00000AD
:100030003DC000003BC0000039C0000037C00000D8
:1000400035C0000033C0000031C000002FC00000E8
:100050002DC000002BC0000029C0000027C00000F8
:1000600025C0000023C0000021C000001FC0000008
:100070001DC000001BC0000019C0000017C0000018
:1000800015C0000013C0000011C0000011241FBEE5
:10009000CFEFD0E1DEBFCDBF21E0A0E0B1E001C0F5
:1000A0001D92AF33B207E1F71AD5A5C6A9CFEBE988
:1000B000F0E080818823ECF7E0910801F0910901DC
:1000C00080919C00E45FFE4F8083E0910801F091F5
:1000D0000901E45FFE4F808108955D9BFECF8CB9DE
:1000E00008951F920F920FB60F9211240BB60F9224
:1000F0002F933F934F935F936F937F938F939F9330
:10010000AF93BF93CF93DF93EF93FF93E0910801F9
:10011000F0910901E45FFE4F8081813609F08BC0C8
:1001200080910A0190910B01019690930B018093AD
:100130000A0180910A0190910B010A9709F07BC096
:100140006091020170910301072E000C880B990B3E
:10015000A2D520E030E84BEB53E407D56ED57BBD4C
:100160006ABD6091000170910101072E000C880B9F
:10017000990B91D59B01AC0160E070E88BEB93E4A7
:10018000F3D45BD579BD68BD6AB57BB580E090E0FE
:1001900080D520E030E04AEF53E44BD58823A9F026
:1001A00068B579B580E090E074D520E030E04AE7AA
:1001B00053E43FD5882349F08091020190910301D7
:1001C0000196909303018093020180910001909128
:1001D00001010196909301018093000110920B019F
:1001E00010920A016AB57BB580E090E052D520E01C
:1001F00030E04AEF53E41DD581111DC068B579B5D3
:1002000080E090E046D520E030E04AE753E411D5A5
:10021000811111C08091080190910901019690937C
:1002200009018093080110920301109202011092BB
:10023000010110920001E0910801F0910901E45FD1
:10024000FE4F8081823609F08BC080910A01909127
:100250000B01019690930B0180930A0180910A0192
:1002600090910B010A9709F07BC060910201709197
:100270000301072E000C880B990B0DD59B01AC01D7
:1002800060E070E08AEF93E46FD4D7D47BBD6ABDA1
:100290006091000170910101072E000C880B990BF1
:1002A000FAD420E030E04AE753E45FD4C6D479BD05
:1002B00068BD6AB57BB580E090E0EBD420E030E823
:1002C0004BEB53E4B6D48823A9F068B579B580E048
:1002D00090E0DFD420E030E84BEB53E4AAD488234D
:1002E00049F08091020190910301019690930301DE
:1002F00080930201809100019091010101969093F9
:1003000001018093000110920B0110920A016AB55D
:100310007BB580E090E0BDD420E030E84BEB53E4C7
:1003200088D481111DC068B579B580E090E0B1D462
:1003300020E030E84BEB53E47CD4811111C0809174
:100340000801909109010196909309018093080199
:10035000109203011092020110920101109200010B
:10036000E0910801F0910901E45FFE4F808183363E
:1003700009F08DC080910A0190910B010196909334
:100380000B0180930A0180910A0190910B01019762
:1003900009F07DC06091020170910301072E000CED
:1003A000880B990B78D420E030E04AEF53E4DDD39A
:1003B00044D47BBD6ABD6091000170910101072E9C
:1003C000000C880B990B67D49B01AC0160E070E0D6
:1003D0008AE793E4C9D331D479BD68BD6AB57BB5EA
:1003E00080E090E056D420E030E843E154E421D4AA
:1003F000882349F080910201909103010196909326
:1004000003018093020168B579B580E090E041D4A2
:1004100020E030E04AEF52E40CD4882349F0809188
:1004200000019091010101969093010180930001D8
:1004300010920B0110920A016AB57BB580E090E042
:1004400028D420E030E843E154E4F3D381111FC005
:1004500068B579B580E090E01CD420E030E04AEF48
:1004600052E4E7D3811113C08091080190910901F2
:100470000196909309018093080110920301109254
:100480000201109201011092000183E626DEE09144
:100490000801F0910901E45FFE4F8081843609F084
:1004A0008DC080910A0190910B01019690930B01F0
:1004B00080930A0180910A0190910B01059709F040
:1004C0007DC06091020170910301072E000C880B22
:1004D000990BE1D39B01AC0160E070E883E194E407
:1004E00043D3ABD37BBD6ABD609100017091010124
:1004F000072E000C880B990BCED320E030E04AEF9A
:1005000052E433D39AD379BD68BD6AB57BB580E038
:1005100090E0BFD320E030E04AEF53E48AD3882351
:1005200049F080910201909103010196909303019B
:100530008093020168B579B580E090E0AAD320E00D
:1005400030E04AE753E475D3882349F080910001F5
:100550009091010101969093010180930001109206
:100560000B0110920A016AB57BB580E090E091D34F
:1005700020E030E84DEE53E45CD381111FC068B534
:1005800079B580E090E085D320E030E04AE753E49D
:1005900050D3811113C080910801909109010196F7
:1005A00090930901809308011092030110920201B7
:1005B000109201011092000184E68FDDE0910801A4
:1005C000F0910901E45FFE4F8081853609F095C006
:1005D00080910A0190910B01019690930B018093F9
:1005E0000A0180910A0190910B010A9709F085C0D8
:1005F0006091020170910301072E000C880B990B8A
:100600004AD320E030E84BEB53E4AFD216D3C6E830
:10061000D0E0798368836091000170910101072E19
:10062000000C880B990B37D39B01AC0160E070E89C
:100630008BEB93E499D201D370938500609384008F
:100640006881798180E090E024D320E030E842EFB7
:1006500053E4EFD28823B9F0609184007091850053
:1006600080E090E016D320E030E042E853E4E1D2AD
:10067000882349F0809102019091030101969093A3
:100680000301809302018091000190910101019684
:10069000909301018093000110920B0110920A01C6
:1006A000609186007091870080E090E0F2D220E0B7
:1006B00030E842EF53E4BDD281111FC06091840045
:1006C0007091850080E090E0E4D220E030E042E8E4
:1006D00053E4AFD2811111C08091080190910901BA
:1006E00001969093090180930801109203011092E2
:1006F00002011092010110920001E0910801F091B5
:100700000901E45FFE4F8081863609F071C0809157
:100710000A0190910B01019690930B0180930A01BD
:1007200080910A0190910B010A9709F061C06091D4
:10073000020170910301072E000C880B990BABD2BC
:100740009B01AC0160E070E88DEE93E40DD275D2B0
:10075000C6E8D0E07983688360910001709101015F
:10076000072E000C880B990B96D220E030E849E860
:1007700053E4FBD162D2E4E8F0E071836083288126
:100780003981808191812817390749F080910201D0
:10079000909103010196909303018093020180914F
:1007A0000001909101010196909301018093000155
:1007B00010920B0110920A0120918600309187005F
:1007C00080918400909185002817390789F48091E1
:1007D0000801909109010196909309018093080105
:1007E0001092030110920201109201011092000177
:1007F000E0910801F0910901E45FFE4F80818736A6
:1008000009F08BC080910A0190910B0101969093A1
:100810000B0180930A0180910A0190910B010A97C4
:1008200009F07BC06091020170910301072E000C5A
:10083000880B990B30D29B01AC0160E070E88BEB28
:1008400093E492D1FAD17BBD6ABD609100017091B1
:100850000101072E000C880B990B1DD220E030E817
:100860004BEB53E482D1E9D179BD68BD6AB57BB564
:1008700080E090E00ED220E030E04AE753E4D9D1A6
:100880008823A9F068B579B580E090E002D220E035
:1008900030E04AEF53E4CDD1882349F08091020142
:1008A000909103010196909303018093020180913E
:1008B0000001909101010196909301018093000144
:1008C00010920B0110920A016AB57BB580E090E0AE
:1008D000E0D120E030E04AE753E4ABD181111DC004
:1008E00068B579B580E090E0D4D120E030E04AEFFF
:1008F00053E49FD1811111C08091080190910901A9
:1009000001969093090180930801109203011092BF
:1009100002011092010110920001E0910801F09192
:100920000901E45FFE4F8081883609F069C080913B
:100930000A0190910B01019690930B0180930A019B
:1009400080910A0190910B010A9709F059C06091BA
:10095000020170910301072E000C880B990B9BD1AB
:1009600020E030E04AE753E400D167D17BBD6ABDA7
:100970006091000170910101072E000C880B990B0A
:100980008AD19B01AC0160E070E08AEF93E4ECD087
:1009900054D179BD68BD2AB53BB588B599B528173E
:1009A000390749F0809102019091030101969093DB
:1009B0000301809302018091000190910101019651
:1009C000909301018093000110920B0110920A0193
:1009D0002AB53BB588B599B52817390789F48091B0
:1009E00008019091090101969093090180930801F3
:1009F0001092030110920201109201011092000165
:100A000080910601909107018B3F910574F18091CF
:100A1000060190910701803991403CF580910401D5
:100A200090910501019690930501809304018091B6
:100A30000401909105010697C4F080910601909100
:100A40000701853F91408CF0E0910801F091090188
:100A5000E45FFE4F87E68083809108019091090151
:100A600001969093090180930801E0910801F091AB
:100A70000901E45FFE4F80818736D1F48FEF97EA5A
:100A800021E6815090402040E1F700C00000E09155
:100A90000801F0910901E45FFE4F88E680838091B0
:100AA0000801909109010196909309018093080132
:100AB00083E884BDFF91EF91DF91CF91BF91AF911A
:100AC0009F918F917F916F915F914F913F912F9166
:100AD0000F900BBE0F900FBE0F901F9018958FEFC9
:100AE00087BB82B988E081BB1092610022EA2FBDEA
:100AF0009BE19EBD20938B0090938A0091E497B96F
:100B000097E896B994E095BD90E497BF93E894BDBB
:100B100010929B0028E120939A0096E090939D000C
:100B200010929800809399001BB82AB99093950071
:100B30001092900089B987E893E197BD86BD9093A4
:100B400081008093800087E791E09BBD8ABD99BDBD
:100B500088BD909387008093860090938500809352
:100B600084007894A4DAFECF5058BB27AA270ED071
:100B700008C1F9D030F0FED020F031F49F3F11F4DD
:100B80001EF4EEC00EF4E095E7FBE4C0E92F0AD1B5
:100B900080F3BA17620773078407950718F071F49A
:100BA0009EF522C10EF4E0950B2EBA2FA02D0B015D
:100BB000B90190010C01CA01A0011124FF27591BA2
:100BC00099F0593F50F4503E68F11A16F040A22FA8
:100BD000232F342F4427585FF3CF46953795279519
:100BE000A795F0405395C9F77EF41F16BA0B620B18
:100BF000730B840BBAF09150A1F0FF0FBB1F661F5F
:100C0000771F881FC2F70EC0BA0F621F731F841FA1
:100C100048F4879577956795B795F7959E3F08F0C7
:100C2000B3CF9395880F08F09927EE0F9795879586
:100C300008956CD008F481E00895BCD088F09F57E7
:100C400090F0B92F9927B751A0F0D1F0660F771F18
:100C5000881F991F1AF0BA95C9F712C0B13081F0F8
:100C6000C3D0B1E00895C0C0672F782F8827B85F40
:100C700039F0B93FCCF3869577956795B395D9F759
:100C80003EF490958095709561957F4F8F4F9F4F63
:100C90000895E89409C097FB3EF49095809570956F
:100CA00061957F4F8F4F9F4F9923A9F0F92F96E9B8
:100CB000BB279395F695879577956795B795F1112D
:100CC000F8CFFAF4BB0F11F460FF1BC06F5F7F4FCA
:100CD0008F4F9F4F16C0882311F096E911C07723DC
:100CE00021F09EE8872F762F05C0662371F096E8E5
:100CF000862F70E060E02AF09A95660F771F881FB4
:100D0000DAF7880F9695879597F90895990F000857
:100D1000550FAA0BE0E8FEEF16161706E807F907CD
:100D2000C0F012161306E407F50798F0621B730B68
:100D3000840B950B39F40A2661F0232B242B252BE9
:100D400021F408950A2609F4A140A6958FEF811D8C
:100D5000811D089597F99F6780E870E060E008952D
:100D60009FEF80EC089500240A94161617061806C3
:100D70000906089500240A9412161306140605069F
:100D80000895092E0394000C11F4882352F0BB0F30
:100D900040F4BF2B11F460FF04C06F5F7F4F8F4F93
:100DA0009F4F089557FD9058440F551F59F05F3FCE
:100DB00071F04795880F97FB991F61F09F3F79F07D
:100DC00087950895121613061406551FF2CF4695FF
:100DD000F1DF08C0161617061806991FF1CF869581
:100DE0007105610508940895E894BB276627772765
:0A0DF000CB0197F90895F894FFCFA6
:00000001FF
